S00E0000537072696E742E7372656396
S11300000C942E010C944B010C94930C0C94160933
S11300100C944B010C9474090C944B010C944B01FB
S11300200C944B010C94A3030C944B010C944B01C2
S11300300C944B010C944B010C94470A0C944B0107
S11300400C944B010C944B010C9404040C944B0140
S11300500C944B010C94B9080C944B010C944B0177
S11300600C944B010C944B0171048704C3042005C8
S11300707D05A505E10526066B067B06000000004C
S11300800000005F00000007000700147F147F14C5
S1130090242A7F2A12231308646236495522500009
S11300A005030000001C2241000041221C0014082A
S11300B03E081408083E08080050300000080808EC
S11300C00808006060000020100804023E51494501
S11300D03E00427F400042615149462141454B3137
S11300E01814127F1027454545393C4A49493001C7
S11300F0710905033649494936064949291E00361E
S1130100360000005636000008142241001414146E
S1130110141400412214080201510906324979419C
S11301203E7E1111117E7F494949363E41414122AB
S11301307F4141221C7F494949417F090909013E08
S11301404149497A7F0808087F00417F41002040E7
S1130150413F017F081422417F404040407F020C10
S1130160027F7F0408107F3E4141413E7F09090917
S1130170063E4151215E7F091929464649494931C4
S113018001017F01013F4040403F1F2040201F3FAD
S11301904038403F6314081463070870080761512E
S11301A0494543007F4141000204081020004141B9
S11301B07F00040201020440404040400001020468
S11301C00020545454787F484444383844444420EC
S11301D0384444487F3854545418087E0901020CAA
S11301E05252523E7F0804047800447D400020406F
S11301F0443D007F1028440000417F40007C0418E7
S113020004787C0804047838444444387C14141476
S113021008081414187C7C08040408485454542016
S1130220043F4440203C4040207C1C2040201C3C97
S11302304030403C44281028440C5050503C446406
S1130240544C44000836410000007F000000413651
S113025008001008081008000000000011241FBE48
S1130260CFEFD8E0DEBFCDBF12E0A0E0B1E0E8E61A
S1130270F9E302C005900D92A430B107D9F724E048
S1130280A4E0B2E001C01D92A435B207E1F70E94D8
S11302904D010C94B21C0C9400002F923F924F928B
S11302A05F926F927F928F929F92AF92BF92CF9202
S11302B0DF92EF92FF920F931F93CF93DF93CDB70B
S11302C0DEB760970FB6F894DEBF0FBECDBF84E2F1
S11302D090E02EEFFC01208385E290E021EFFC0109
S11302E0208387E290E02CE7FC0120838AE290E0FF
S11302F020E2FC0120838BE290E02BE230E0F90164
S11303002081276DFC01208388E690E025E0FC0134
S113031020838DE690E020EDFC0120838BE690E0C5
S113032021E0FC01208389E690E024E0FC012083A5
S11303308DE390E022E0FC01208384E490E022E05D
S1130340FC01208385E490E023E0FC01208387E422
S113035090E029EFFC0120838EE690E022E0FC018E
S1130360208386E890E02FE33CE9FC01318320837D
S113037080E890E022EAFC01208381E890E02AE111
S1130380FC01208388E890E020ED37E0FC01318314
S113039020838AE890E020ED37E0FC01318320835C
S11303A08CE790E020E4FC0120838AE790E02FEEC4
S11303B0FC0120838BE790E0FC0110828EE790E043
S11303C02EE3FC01208380EB90E0FC01108281EBA2
S11303D090E027E0FC01208382EB90E024E6FC011E
S11303E0208380E790E021E0FC01208387E690E011
S11303F00E94E00378940E942A150E94AA160E9483
S1130400D60D83E290E0FC01208183E290E0FC01C0
S113041080818860281709F07BC080E090E0A6E125
S1130420B3E48B839C83AD83BE8320E030E04AE752
S113043055E46B817C818D819E810E945A1ADC0176
S1130440CB018F839887A987BA8720E030E040E802
S11304505FE36F81788589859A850E94A218882335
S11304602CF481E090E09C878B873FC020E03FEF35
S11304704FE757E46F81788589859A850E94551ADC
S113048018164CF520E030E040E251E46B817C81A9
S11304908D819E810E945A1ADC01CB01BC01CD01E1
S11304A00E942019DC01CB019C878B870FC080E957
S11304B091E09E878D878D859E850197F1F79E87B4
S11304C08D878B859C8501979C878B878B859C85E5
S11304D0892B69F714C06F81788589859A850E9474
S11304E02019DC01CB019C878B878B859C85988B9D
S11304F08F878F8598890197F1F7988B8F8785E28D
S113050090E025E230E0F9012081277FFC0120837F
S113051020900E0230900F02409010025090110271
S11305206090120270901302809014029090150251
S11305300F2EF8ECAF2EF02DB12CC12CD12CE12CC8
S1130540F12C00E010E0222D332D442D552D662D85
S1130550772D882D992D0E940C1B222E332E442E8C
S1130560552E662E772E882E992EA22CB32CC42CB1
S1130570D52CE62CF72C082D192D2A2D3B2D4C2D8E
S11305805D2D6E2D7F2D802F912FA0E00E940A1CDF
S113059021F40E9427080E94C90EA0900E02B09078
S11305A00F02C0901002D0901102E0901202F0905D
S11305B0130200911402109115022A2D3B2D4C2D8B
S11305C05D2D6E2D7F2D802F912F0E944F193B01A1
S11305D04C01A0903C04B0903D04C0903E04D090E7
S11305E03F04E0904004F0904104009142041091D3
S11305F043042A2D3B2D4C2D5D2D6E2D7F2D802FF8
S1130600912F0E944F196B017C01809146049091B7
S11306104704A0914804B09149049C01AD01BC0178
S1130620CD010E943618DC01CB019C01AD01C7014C
S1130630B6010E943618DC01CB0120E030E048E42A
S113064053E4BC01CD010E943618DC01CB019C01AE
S1130650AD01C401B3010E94551A18160CF072C002
S113066020910E0230910F0240911002509111021C
S113067060911202709113028091140290911502FC
S113068020934C0430934D0440934E0450934F04F4
S113069060935004709351048093520490935304D4
S11306A020914C0430914D0440914E0450914F04DC
S11306B060915004709151048091520490915304BC
S11306C0F90120913C0430913D0440913E04509145
S11306D03F046091400470914104809142049091E0
S11306E04304C9019F01281B390BC9019A838983DB
S11306F089819A81092E000CAA0BBB0BBC01CD0188
S11307000E945719DC01CB019C01AD0160E070E04F
S113071080E89FE30E94A718DC01CB0120E030E6CB
S11307204AE657E4BC01CD010E945A1ADC01CB0110
S1130730BC01CD010E941919DC01CB01909309027F
S1130740809308025ECE1F920F9200905F000F927A
S113075011242F933F934F935F936F937F938F93C2
S11307609F93AF93BF93EF93FF93CF93DF93CDB753
S1130770DEB782EB90E024E6FC0120838091240222
S11307808F5F8093240280912402853021F410929B
S113079024020E94CA110000DF91CF91FF91EF91D2
S11307A0BF91AF919F918F917F916F915F914F9185
S11307B03F912F910F9000925F000F901F9018951A
S11307C0CF93DF9300D0CDB7DEB79A83898385ECCE
S11307D090E029813A81232F3327FC01208384EC84
S11307E090E02981FC01208381EC90E028E9FC0160
S11307F0208382EC90E026E0FC01208300000F902F
S11308000F90DF91CF9108951F920F9200905F0097
S11308100F9211242F933F934F935F936F937F9382
S11308208F939F93AF93BF93EF93FF93CF93DF93F4
S1130830CDB7DEB786EC90E0FC01808180932B0479
S11308408AE391E00E943D046AE371E00E949E06FF
S11308500000DF91CF91FF91EF91BF91AF919F91F4
S11308608F917F916F915F914F913F912F910F9055
S113087000925F000F901F901895CF93DF93CDB730
S1130880DEB769970FB6F894DEBF0FBECDBF998F60
S1130890888F8BE0E2E5F1E0DE011D9601900D9278
S11308A08A95E1F780911C0290911D0290931B029E
S11308B080931A0280911A0290911B02092E000C57
S11308C0AA0BBB0B40E050E029E030E0841B950B01
S11308D02817390708F425C28C5C9F4FFC010C943F
S11308E0061B10921F0210921E0280912B048B3360
S11308F039F481E090E090931D0280931C0211C2B0
S113090089E090E090931D0280931C020AC289E062
S113091090E090931D0280931C021A8219822EC0CB
S11309209E01235F3F4F89819A81820F931FFC01AF
S1130930908180912B049817E1F482E090E09093E9
S11309401D0280931C0280911E0290911F029C0143
S1130950888D998D820F931F20912B04FC01208395
S113096080911E0290911F02019690931F02809322
S11309701E0289819A8101969A83898389819A8149
S11309800A9774F2CEC180912B048837E9F485E08C
S113099090E090931D0280931C0280911E0290911E
S11309A01F029C01888D998D820F931F20912B0427
S11309B0FC01208380911E0290911F020196909366
S11309C01F0280931E0206C089E090E090931D02EE
S11309D080931C021C821B822EC09E01235F3F4F0A
S11309E08B819C81820F931FFC01908180912B0449
S11309F09817E1F483E090E090931D0280931C0229
S1130A0080911E0290911F029C01888D998D820F06
S1130A10931F20912B04FC01208380911E0290914E
S1130A201F02019690931F0280931E028B819C816A
S1130A3001969C838B838B819C810A9774F271C18C
S1130A4080912B048837E9F485E090E090931D02AF
S1130A5080931C0280911E0290911F029C01888D3C
S1130A60998D820F931F20912B04FC012083809188
S1130A701E0290911F02019690931F0280931E0202
S1130A8006C089E090E090931D0280931C021E82B0
S1130A901D822EC09E01235F3F4F8D819E81820F58
S1130AA0931FFC01908180912B049817E1F484E05A
S1130AB090E090931D0280931C0280911E029091FD
S1130AC01F029C01888D998D820F931F20912B0406
S1130AD0FC01208380911E0290911F020196909345
S1130AE01F0280931E028D819E8101969E838D83B9
S1130AF08D819E810A9774F214C180912B048837EA
S1130B00E9F485E090E090931D0280931C028091AB
S1130B101E0290911F029C01888D998D820F931F54
S1130B2020912B04FC01208380911E0290911F02CE
S1130B30019690931F0280931E02F3C089E090E017
S1130B4090931D0280931C02ECC089E090E0909386
S1130B501D0280931C0218861F822EC09E01235FF3
S1130B603F4F8F819885820F931FFC019081809164
S1130B702B049817E1F486E090E090931D02809393
S1130B801C0280911E0290911F029C01888D998DF8
S1130B90820F931F20912B04FC01208380911E025D
S1130BA090911F02019690931F0280931E028F81E1
S1130BB09885019698878F838F8198850A9774F218
S1130BC0B0C080912B048A3329F410921D02109234
S1130BD01C0206C089E090E090931D0280931C02E1
S1130BE01A8619862EC09E01235F3F4F89859A85F8
S1130BF0820F931FFC01908180912B049817E1F4DC
S1130C0087E090E090931D0280931C0280911E0265
S1130C1090911F029C01888D998D820F931F2091C2
S1130C202B04FC01208380911E0290911F020196E7
S1130C3090931F0280931E0289859A8501969A8754
S1130C40898789859A850A9774F26BC080912B04F1
S1130C508A3329F410921D0210921C0206C089E006
S1130C6090E090931D0280931C021C861B862EC06C
S1130C709E01235F3F4F8B859C85820F931FFC0150
S1130C80908180912B049817E1F488E090E0909390
S1130C901D0280931C0280911E0290911F029C01F0
S1130CA0888D998D820F931F20912B04FC01208342
S1130CB080911E0290911F02019690931F028093CF
S1130CC01E028B859C8501969C878B878B859C85D2
S1130CD00A9774F226C080912B048A3329F4109267
S1130CE01D0210921C021DC089E090E090931D0229
S1130CF080931C0216C080912B048B3339F481E05D
S1130D0090E090931D0280931C0206C089E090E05D
S1130D1090931D0280931C0210921F0210921E02D7
S1130D20000080911C0290911D0269960FB6F89400
S1130D30DEBF0FBECDBFDF91CF910895CF93DF9378
S1130D4000D000D000D0CDB7DEB79C838B837E83E8
S1130D506D838B819C81099711F51A8219821AC0BF
S1130D6089819A818E5B9E4FFC01208189819A81C1
S1130D70865B9E4FFC01208389819A812D813E816F
S1130D80820F931F20E2FC01208389819A810196BE
S1130D909A83898389819A81079714F327C08B8169
S1130DA09C81892B19F51A8219821CC089819A8128
S1130DB02D813E81820F931FFC01208189819A81BC
S1130DC0865B9E4FFC01208389819A812D813E811F
S1130DD0820F931F20E2FC01208389819A8101966E
S1130DE09A83898389819A81079704F30000269660
S1130DF00FB6F894DEBF0FBECDBFDF91CF9108953B
S1130E00CF93DF93CDB7DEB72E970FB6F894DEBF3E
S1130E100FBECDBF209106023091070280910401DC
S1130E20909105012817390759F580910001909197
S1130E300101892BB9F48091160290911702892B34
S1130E4039F081E090E090931902809318020AC06F
S1130E508091340190913501892B21F0109219026F
S1130E60109218021092070210920602809100015B
S1130E709091010121E08227909301018093000168
S1130E808091000190910101892B89F02091060243
S1130E90309107024AEF429FC001439F900D1124F5
S1130EA08053984F90930502809304021EC02091B2
S1130EB00401309105014AEF429FC001439F900D08
S1130EC011249C012053384F40910602509107028F
S1130ED066E0649FC001659F900D941B1124820FEE
S1130EE0931F909305028093040288E890E0209178
S1130EF0040230910502FC013183208380910402B5
S1130F0090910502803D974009F08EC08BE290E0FD
S1130F102BE230E0F90120812062FC0120838091E2
S1130F20060190910701092E000CAA0BBB0BBC0112
S1130F30CD010E945719DC01CB0189839A83AB83CD
S1130F40BC8320E030E04AE755E469817A818B81F3
S1130F509C810E945A1ADC01CB018D839E83AF834E
S1130F60B88720E030E040E85FE36D817E818F81C7
S1130F7098850E94A21888232CF481E090E09A8737
S1130F8089873FC020E03FEF4FE757E46D817E81C2
S1130F908F8198850E94551A18164CF520E030E090
S1130FA040E251E469817A818B819C810E945A1AC2
S1130FB0DC01CB01BC01CD010E942019DC01CB0175
S1130FC09A8789870FC080E991E09C878B878B85FE
S1130FD09C850197F1F79C878B8789859A85019772
S1130FE09A87898789859A85892B69F714C06D81C9
S1130FF07E818F8198850E942019DC01CB019A871C
S1131000898789859A859E878D878D859E85019799
S1131010F1F79E878D878BE290E02BE230E0F901B7
S113102020812F7DFC01208380910602909107028C
S11310300196909307028093060200002E960FB645
S1131040F894DEBF0FBECDBFDF91CF910895CF934B
S1131050DF93CDB7DEB78CE790E0FC01808180346C
S113106029F580912C0490912D04A0912E04B09127
S11310702F0420E030E040E85FE3BC01CD010E9492
S11310803618DC01CB0120E030E040E251E4BC0141
S1131090CD010E945A1ADC01CB0180930C0190937C
S11310A00D01A0930E01B0930F0122C08CE790E0D4
S11310B0FC0180818134E1F480912C0490912D0411
S11310C0A0912E04B0912F0420E030E040EA51E4D6
S11310D0BC01CD010E945A1ADC01CB01BC01CD0137
S11310E00E941919DC01CB0190930B0280930A0230
S11310F080910A0290910B02CC9724F180910C010B
S113110090910D01A0910E01B0910F0120E030E00B
S11311104CE052E4BC01CD010E94A218882394F053
S113112080910C0190910D01A0910E01B0910F01DD
S113113020E030E044E252E4BC01CD010E94551AA3
S1131140181654F48BE290E02BE230E0F901208190
S11311502062FC01208309C08BE290E02BE230E0A6
S1131160F90120812F7DFC0120830000DF91CF91C4
S113117008951F920F9200905F000F9211242F93F5
S11311803F934F935F936F937F938F939F93AF930B
S1131190BF93EF93FF93CF93DF93CDB7DEB788E789
S11311A090E0FC018081918190933104809330041C
S11311B08091300490913104CC01A0E0B0E0BC01F6
S11311C0CD010E945519DC01CB0120E030E040EA5A
S11311D050E4BC01CD010E945A1ADC01CB0120E08D
S11311E030EC4FE754E4BC01CD010E94A718DC01A8
S11311F0CB0180932C0490932D04A0932E04B093E0
S11312002F040000DF91CF91FF91EF91BF91AF9137
S11312109F918F917F916F915F914F913F912F910A
S11312200F9000925F000F901F9018951F920F92DD
S113123000905F000F9211242F933F934F935F937D
S11312406F937F938F939F93EF93FF93CF93DF934A
S1131250CDB7DEB78091180290911902019789F5F4
S113126083E290E0FC018081282F30E083E290E06B
S1131270FC018081882F90E08E7F992728173907F9
S113128001F520910E0230910F024091100250910D
S113129011026091120270911302809114029091D4
S11312A01502209332043093330440933404509352
S11312B03504609336047093370480933804909314
S11312C039040000DF91CF91FF91EF919F918F91AD
S11312D07F916F915F914F913F912F910F90009269
S11312E05F000F901F9018951F920F9200905F005F
S11312F00F9211242F933F934F935F936F937F9398
S11313008F939F93AF93BF93EF93FF93CF93DF9309
S113131000D0CDB7DEB789E290E0FC018081282FB0
S113132030E089E290E0FC018081882F90E08F7E9C
S1131330992728173907C9F480912502909126022C
S11313400196909326028093250281E090E0909389
S11313504B0480934A0480912502909126020697BB
S113136021F4109226021092250280914A04909151
S11313704B04892B21F00E94AA160E941318109284
S11313804B0410924A048091250290912602892BE5
S113139009F466C089E290E0FC018081282F30E0E6
S11313A089E290E0FC018081882F90E08F7B99276F
S11313B02817390711F581E090E090933501809367
S11313C0340110921702109216021A82198211C067
S11313D089819A81845E9E4FFC01208189819A8152
S11313E0805F9E4FFC01208389819A8101969A83B4
S11313F0898389819A810C975CF389E290E0FC01EE
S11314008081282F30E089E290E0FC018081882FE0
S113141090E08F7799272817390711F51092350135
S11314201092340181E090E09093170280931602A9
S11314301A82198211C089819A81885D9E4FFC01AC
S1131440208189819A81805F9E4FFC01208389815C
S11314509A8101969A83898389819A810C975CF396
S113146000000F900F90DF91CF91FF91EF91BF910A
S1131470AF919F918F917F916F915F914F913F9128
S11314802F910F9000925F000F901F9018951F925C
S11314900F9200905F000F9211242F923F924F926F
S11314A05F926F927F928F929F92AF92BF92CF92F0
S11314B0DF92EF92FF920F931F932F933F934F93DB
S11314C05F936F937F938F939F93AF93BF93EF93A8
S11314D0FF93CF93DF93CDB7DEB76897DEBFCDBF61
S11314E0A0900E02B0900F02C0901002D090110292
S11314F0E0901202F0901302009114021091150270
S11315002A2D3B2D4C2D5D2D6E2D7F2D802F912F5F
S1131510A1E00E94EC1BA22EB32EC42ED52EE62EE3
S1131520F72E082F192FA0920E02B0920F02C0922C
S11315301002D0921102E0921202F0921302009370
S11315401402109315028091040190910501AC01DD
S1131550440F551F2091020130910301429FC001A5
S1131560439F900D529F900D11249C01990F440BA1
S1131570550B80E69AEEA0E0B0E0BC01CD010E94DC
S1131580E71ADA01C90190934504809344048091D9
S1131590180290911902019709F069C080910A011B
S11315A090910B019A838983892F880F880B8B83F1
S11315B08C838D838E838F83888720903204309030
S11315C03304409034045090350460903604709095
S11315D03704809038049090390429813A814B81F2
S11315E05C816D817E818F819885A22CB32CC42C63
S11315F0D52CE62CF72C082D192D0E94E31BA22EC6
S1131600B32EC42ED52EE62EF72E082F192F209098
S11316100E0230900F024090100250901102609020
S113162012027090130280901402909015022A2DD9
S11316303B2D4C2D5D2D6E2D7F2D802F912FA22CB7
S1131640B32CC42CD52CE62CF72C082D192D0E9474
S1131650011C69F410922A041092290485E290E096
S113166025E230E0F90120812860FC01208380918B
S1131670180290911902019709F067C08091040142
S1131680909105019C01220F331F809129049091B0
S11316902A04821793070CF058C020900E02309051
S11316A00F0240901002509011026090120270904C
S11316B0130280901402909015028091440490913A
S11316C045049A878987892F880F880B8B878C8795
S11316D08D878E878F87888BA984BA84CB84DC849A
S11316E0ED84FE840F851889222D332D442D552D2C
S11316F0662D772D882D992D0E940C1B222E332EBA
S1131700442E552E662E772E882E992EA22CB32C7D
S1131710C42CD52CE62CF72C082D192D2A2D3B2D65
S11317204C2D5D2D6E2D7F2D802F912FA0E00E94DA
S11317300A1C59F40E9400078091290490912A04FC
S1131740019690932A048093290480910401909136
S113175005019C01220F331F8091290490912A04D2
S11317602817390751F48091340190913501892B60
S113177021F010921902109218028091180290918F
S11317801902892B09F04FC020900E0230900F02ED
S11317904090100250901102609012027090130257
S11317A08090140290901502809144049091450415
S11317B09A8B898B892F880F880B8B8B8C8B8D8BC5
S11317C08E8B8F8B888FA988BA88CB88DC88ED882C
S11317D0FE880F89188D222D332D442D552D662D0D
S11317E0772D882D992D0E940C1B222E332E442EEA
S11317F0552E662E772E882E992EA22CB32CC42C0F
S1131800D52CE62CF72C082D192D2A2D3B2D4C2DEB
S11318105D2D6E2D7F2D802F912FA0E00E940A1C3C
S113182011F40E94000720900E0230900F024090A5
S11318301002509011026090120270901302809076
S11318401402909015020F2EF6E9AF2EF02DB12C54
S1131850C12CD12CE12CF12C00E010E0222D332DF1
S1131860442D552D662D772D882D992D0E940C1B06
S1131870222E332E442E552E662E772E882E992E08
S1131880A22CB32CC42CD52CE62CF72C082D192D06
S11318902A2D3B2D4C2D5D2D6E2D7F2D802F912FCC
S11318A0A0E00E940A1CA1F48CE790E02CE730E051
S11318B0F901308121E02327FC0120838EE790E0A9
S11318C02EE730E0F901308123E02327FC01208357
S11318D0000068960FB6F894DEBF0FBECDBFDF914F
S11318E0CF91FF91EF91BF91AF919F918F917F9194
S11318F06F915F914F913F912F911F910F91FF90A5
S1131900EF90DF90CF90BF90AF909F908F907F909B
S11319106F905F904F903F902F900F9000925F00D8
S11319200F901F9018951F920F9200905F000F92D6
S113193011242F923F924F925F926F927F928F92D7
S11319409F92AF92BF92CF92DF92EF92FF920F934A
S11319501F932F933F934F935F936F937F938F9333
S11319609F93AF93BF93EF93FF93CF93DF93CDB741
S1131970DEB789E290E0FC01208189E290E0FC017D
S1131980808188602817A1F5A0900E02B0900F0204
S1131990C0901002D0901102E0901202F090130255
S11319A000911402109115022A2D3B2D4C2D5D2D12
S11319B06E2D7F2D802F912FA1EF0E94EC1BA22E64
S11319C0B32EC42ED52EE62EF72E082F192FA09253
S11319D03C04B0923D04C0923E04D0923F04E09295
S11319E04004F09241040093420410934304B9C0AC
S11319F089E290E0FC018081282F30E089E290E0C8
S1131A00FC018081882F90E0877F99272817390768
S1131A1009F0A7C0A0900E02B0900F02C09010026F
S1131A20D0901102E0901202F0901302009114027F
S1131A30109115022A2D3B2D4C2D5D2D6E2D7F2DE1
S1131A40802F912FA1EF0E94EC1BA22EB32EC42E47
S1131A50D52EE62EF72E082F192FA0924C04B09203
S1131A604D04C0924E04D0924F04E0925004F09280
S1131A7051040093520410935304A0904C04B0906A
S1131A804D04C0904E04D0904F04E0905004F09068
S1131A905104009152041091530420903C0430905E
S1131AA03D0440903E0450903F0460904004709088
S1131AB0410480904204909043042A2D3B2D4C2DE8
S1131AC05D2D6E2D7F2D802F912FA22CB32CC42C35
S1131AD0D52CE62CF72C082D192D0E94F81BA22ECC
S1131AE0B32EC42ED52EE62EF72E082F192F2A2D0D
S1131AF03B2D4C2D5D2D6E2D7F2D802F912F0E941F
S1131B004F19DC01CB018093460490934704A093C2
S1131B104804B09349048091460490914704A091ED
S1131B204804B09149049C01AD0160E070E080E894
S1131B309FE30E94A718DC01CB0120E030E64AEEC7
S1131B4056E4BC01CD010E945A1ADC01CB01BC0150
S1131B50CD010E941919DC01CB01909309028093F5
S1131B6008020000DF91CF91FF91EF91BF91AF91F7
S1131B709F918F917F916F915F914F913F912F91A1
S1131B801F910F91FF90EF90DF90CF90BF90AF9097
S1131B909F908F907F906F905F904F903F902F9089
S1131BA00F9000925F000F901F901895CF93DF93D2
S1131BB0CDB7DEB72E970FB6F894DEBF0FBECDBFFC
S1131BC080910C0190910D01A0910E01B0910F0133
S1131BD0BC01CD010E941919DC01CB019A838983D0
S1131BE080910C0190910D01A0910E01B0910F0113
S1131BF020E030E040E251E4BC01CD010E945A1AD9
S1131C00DC01CB01BC01CD010E941919DC01CB011F
S1131C109C838B838B819C812AE030E0B9010E94F4
S1131C20D31A9E838D8361E082E00E94001861E0F4
S1131C308DE591E00E94DD176AE085E00E940018BE
S1131C4080910802909109029E01295F3F4F4AE06A
S1131C5050E0B9010E946A1C61E08BE691E00E94A9
S1131C60DD176AE085E00E940018CE01079661E066
S1131C700E94DD176AE08DE20E94001861E080E7AF
S1131C8091E00E94DD1763E185E00E9400188091D5
S1131C900A0290910B029E01265F3F4F4AE050E0FA
S1131CA0B9010E946A1C61E08BE691E00E94DD1795
S1131CB063E185E00E940018CE010A9661E00E946B
S1131CC0DD1763E18DE20E94001861E084E791E092
S1131CD00E94DD176CE185E00E94001861E08BE64C
S1131CE091E00E94DD176CE185E00E9400189E01DE
S1131CF0245F3F4F89819A814AE050E0B9010E94F4
S1131D006A1CCE010C9661E00E94DD176CE182E151
S1131D100E94001861E08AE791E00E94DD176CE1FF
S1131D2087E10E9400189E01225F3F4F8D819E81B2
S1131D304AE050E0B9010E946A1CCE010E9661E0AF
S1131D400E94DD176CE18DE20E94001861E08CE7CF
S1131D5091E00E94DD1765E281E00E94001861E0D5
S1131D608AE491E00E94DD1765E28DE20E9400188A
S1131D7061E08FE791E00E94DD170E9413180000D4
S1131D802E960FB6F894DEBF0FBECDBFDF91CF9174
S1131D900895CF93DF93CDB7DEB78091250290915C
S1131DA02602892B19F40E94D60D37C08091250292
S1131DB090912602019719F40E94110F2EC0809170
S1131DC0250290912602029719F40E94980F25C0CB
S1131DD08091250290912602039719F40E94231002
S1131DE01CC08091250290912602049719F40E9448
S1131DF0AA1013C08091250290912602059769F4D8
S1131E008091180290911902019719F40E943811D7
S1131E1004C010922602109225020000DF91CF9197
S1131E200895CF93DF9300D000D01F92CDB7DEB7D3
S1131E3061E08AE00E94001861E084E891E00E9479
S1131E40DD176AE08AE00E94001861E080E191E019
S1131E500E94DD1780910201909103014AE050E055
S1131E609E012F5F3F4FB9010E946A1C64E185E027
S1131E700E94001861E08FE891E00E94DD1764E1A0
S1131E8085E00E94001861E0CE0101960E94DD17F2
S1131E9064E184E10E94001861E082E991E00E941B
S1131EA0DD1780910C0290910D024AE050E09E01F2
S1131EB02F5F3F4FB9010E946A1C6EE185E00E94CA
S1131EC0001861E0CE0101960E94DD176EE18EE1FB
S1131ED00E94001861E08DE991E00E94DD17809175
S1131EE00401909105019E012C5F3F4F4AE050E0B0
S1131EF0B9010E946A1C68E285E00E940018CE01C4
S1131F00049661E00E94DD1768E28EE10E940018E9
S1131F1061E081EA91E00E94DD170E94131800003D
S1131F200F900F900F900F900F90DF91CF91089525
S1131F30CF93DF93CDB7DEB729970FB6F894DEBF02
S1131F400FBECDBF61E08AE00E94001861E084E822
S1131F5091E00E94DD176AE08AE00E94001861E0C7
S1131F6080E191E00E94DD178091020190910301CC
S1131F704AE050E09E012F5F3F4FB9010E946A1C66
S1131F8064E185E00E94001861E0CE0101960E94A0
S1131F90DD1764E18EE10E94001861E085EA91E0BA
S1131FA00E94DD1780910C0290910D029E012A5F20
S1131FB03F4F4AE050E0B9010E946A1C6EE185E09F
S1131FC00E94001861E08EEA91E00E94DD176EE144
S1131FD085E00E940018CE01069661E00E94DD179C
S1131FE06EE184E10E94001861E082EB91E00E94BE
S1131FF0DD1780910401909105019E012C5F3F4FF4
S11320004AE050E0B9010E946A1C68E285E00E943F
S11320100018CE01049661E00E94DD1768E28EE1AB
S11320200E94001861E081EA91E00E94DD170E949D
S11320301318000029960FB6F894DEBF0FBECDBF6B
S1132040DF91CF910895CF93DF9300D000D01F92FA
S1132050CDB7DEB761E08AE00E94001861E084E851
S113206091E00E94DD176AE08AE00E94001861E0B6
S113207080E191E00E94DD178091020190910301BB
S11320804AE050E09E012F5F3F4FB9010E946A1C55
S113209064E185E00E94001861E0CE0101960E948F
S11320A0DD1764E18EE10E94001861E085EA91E0A9
S11320B00E94DD1780910C0290910D024AE050E0DD
S11320C09E012F5F3F4FB9010E946A1C6EE185E0BB
S11320D00E94001861E0CE0101960E94DD176EE1B6
S11320E08EE10E94001861E08DE991E00E94DD1705
S11320F080910401909105019E012C5F3F4F4AE0BD
S113210050E0B9010E946A1C68E285E00E94001850
S113211061E088EB91E00E94DD1768E285E00E94AF
S11321200018CE01049661E00E94DD1768E284E1A4
S11321300E94001861E08AEB91E00E94DD170E9482
S1132140131800000F900F900F900F900F90DF91D5
S1132150CF910895CF93DF9300D000D000D0CDB7B6
S1132160DEB761E08AE00E94001861E084E891E053
S11321700E94DD176AE085E00E94001861E080ECAF
S113218091E00E94DD1780910601909107019E0164
S11321902D5F3F4F4AE050E0B9010E946A1C64E1A0
S11321A085E00E94001861E08EEA91E00E94DD174C
S11321B064E185E00E940018CE01039661E00E946C
S11321C0DD1764E188E20E94001861E08EEC91E082
S11321D00E94DD1780911802909119020197E1F590
S11321E06EE185E00E94001861E081ED91E00E94BB
S11321F0DD1780910801909109014AE050E09E01A9
S11322002F5F3F4FB9010E946A1C80910801909191
S113221009010A9734F480E28B8389818A8380E3FD
S1132220898368E285E00E94001861E089ED91E00D
S11322300E94DD1768E287E10E94001861E0CE0188
S113224001960E94DD1768E288E20E94001861E0AE
S11322508DED91E00E94DD170E9413180000269670
S11322600FB6F894DEBF0FBECDBFDF91CF910895B6
S1132270CF93DF93CDB7DEB727970FB6F894DEBFC1
S11322800FBECDBF61E08AE00E94001861E084E8DF
S113229091E00E94DD176AE085E00E94001861E089
S11322A082EE91E00E94DD17809106019091070172
S11322B09E012C5F3F4F4AE050E0B9010E946A1C26
S11322C064E185E00E940018CE01049661E00E945A
S11322D0DD1764E188E20E94001861E08EEC91E071
S11322E00E94DD178091180290911902019709F05C
S11322F045C06EE185E00E94001861E08EEE91E039
S11323000E94DD1780910801909109014AE050E094
S11323109E012F5F3F4FB9010E946A1C8091080102
S1132320909109010A9734F480E28B8389818A832E
S113233080E3898368E285E00E94001861E089ED0A
S113234091E00E94DD1768E287E10E94001861E0D5
S11323508FE891E00E94DD1768E287E10E9400188F
S113236061E0CE0101960E94DD1768E288E20E94D6
S1132370001861E08DED91E00E94DD170E941318B2
S1132380000027960FB6F894DEBF0FBECDBFDF91D5
S1132390CF910895CF93DF93CDB7DEB7809122021A
S11323A090912302892B99F485E290E025E230E0B4
S11323B0F90120812F77FC01208385E290E025E25A
S11323C030E0F90120812067FC0120834AC080911C
S11323D0220290912302019799F485E290E025E28C
S11323E030E0F90120812F7BFC01208385E290E01D
S11323F025E230E0F9012081206BFC01208331C00B
S11324008091220290912302029799F485E290E050
S113241025E230E0F90120812F7DFC01208385E253
S113242090E025E230E0F9012081206DFC01208359
S113243018C08091220290912302039791F485E2BF
S113244090E025E230E0F90120812F7EFC01208319
S113245085E290E025E230E0F9012081206EFC0164
S1132460208389E290E0FC018081282F30E089E21A
S113247090E0FC018081882F90E08E7F99272817B7
S1132480390781F410923B0410923A0420913A04E3
S113249030913B048091220290912302B9010E9461
S11324A0AE1245C089E290E0FC018081282F30E023
S11324B089E290E0FC018081882F90E08D7F99274C
S11324C02817390791F481E090E090933B048093BE
S11324D03A0420913A0430913B0480912202909175
S11324E02302B9010E94AE1222C089E290E0FC01ED
S11324F08081282F30E089E290E0FC018081882FE0
S113250090E08B7F99272817390789F482E090E0BF
S113251090933B0480933A0420913A0430913B0415
S11325208091220290912302B9010E94AE128091FF
S11325302202909123020196909323028093220217
S11325408091220290912302049721F41092230295
S1132550109222020000DF91CF910895CF93DF9370
S1132560CDB7DEB76E970FB6F894DEBF0FBECDBF02
S11325709C8F8B8F7E8F6D8F8CE0E8EFF1E0DE0116
S11325801F9601900D928A95E1F780E790E0FC0197
S1132590108280E090E0A0EAB1E489839A83AB835F
S11325A0BC8320E030E04AE755E469817A818B817D
S11325B09C810E945A1ADC01CB018D839E83AF83D8
S11325C0B88720E030E040E85FE36D817E818F8151
S11325D098850E94A21888232CF481E090E09A87C1
S11325E089873FC020E03FEF4FE757E46D817E814C
S11325F08F8198850E94551A18164CF520E030E01A
S113260040E251E469817A818B819C810E945A1A4B
S1132610DC01CB01BC01CD010E942019DC01CB01FE
S11326209A8789870FC080E991E09C878B878B8587
S11326309C850197F1F79C878B8789859A850197FB
S11326409A87898789859A85892B69F714C06D8152
S11326507E818F8198850E942019DC01CB019A87A5
S1132660898789859A859E878D878D859E85019723
S1132670F1F79E878D8731E08B8D9C8D039709F050
S113268030E021E08D8D9E8D892B09F020E0832F91
S11326908223882349F0809120029091210201979E
S11326A0909321028093200231E08B8D9C8D0397BF
S11326B009F030E021E08D8D9E8D029709F020E035
S11326C0832F8223882311F00E949A1340912002C1
S11326D0509121022B8D3C8DC901880F991F820FC7
S11326E0931F9E012F5F3F4F280F391F8D8D9E8DA5
S11326F0820F931F0E96FC012081CA018A5C9E4FB3
S1132700FC012083809120029091210201969093F4
S113271021028093200280E790E021E0FC012083E5
S113272000006E960FB6F894DEBF0FBECDBFDF91EA
S1132730CF910895CF93DF9300D0CDB7DEB7109239
S1132740210210922002809125029091260283306A
S1132750910509F45CC08430910534F4813091050D
S113276059F0029761F1C6C08430910509F465C03F
S1132770059709F486C0BEC086E391E00E944C1C14
S113278090930301809302018091020190910301CF
S113279005973CF485E090E0909303018093020157
S11327A0A0C080910201909103014F970CF499C04D
S11327B08EE190E0909303018093020192C086E33E
S11327C091E00E944C1C90930D0280930C028AE8C5
S11327D090E040910C0250910D0264E1649F9001DD
S11327E0659F300D11242053384FFC013183208321
S11327F080910C0290910D02853691050CF473C002
S113280084E690E090930D0280930C026CC086E302
S113281091E00E944C1C90930501809304018091E7
S113282004019091050109970CF45FC088E090E0E1
S1132830909305018093040158C086E391E00E94BF
S11328404C1C90930701809306018091060190919E
S11328500701853F91403CF084EF91E0909307019C
S11328608093060144C080910601909107018C3247
S11328709140ECF58CE291E090930701809306017E
S113288036C086E391E00E944C1C9093090180932A
S11328900801209108013091090142E3429FC001DF
S11328A0439F900D112490930B0180930A01809112
S11328B008019091090145973CF084E190E09093E0
S11328C009018093080115C08091080190910901C4
S11328D005977CF485E090E09093090180930801CA
S11328E008C0000007C0000005C0000003C00000CD
S11328F001C000001A8219820EC088EB91E0282FD3
S113290089819A818A5C9E4FFC01208389819A8106
S113291001969A83898389819A81049774F30000CC
S11329200F900F90DF91CF9108951F93CF93DF9372
S113293000D0CDB7DEB789836A8388E290E028E2CD
S113294030E0F90120812F7BFC0120838A818823D8
S113295051F088E290E028E230E0F901208128601B
S1132960FC01208309C088E290E028E230E0F9010C
S11329702081277FFC01208310E03CC08981882FBF
S113298090E0212F30E047E050E0BA01621B730B66
S11329909B0102C0959587952A95E2F78170992746
S11329A0892B51F088E290E028E230E0F90120819F
S11329B02061FC01208309C088E290E028E230E035
S11329C0F90120812F7EFC01208388E290E028E237
S11329D030E0F90120812062FC01208388E290E04C
S11329E028E230E0F90120812F7DFC012083812F32
S11329F011E0180F183010F288E290E028E230E07D
S1132A00F90120812064FC01208300000F900F90C5
S1132A10DF91CF911F910895CF93DF931F92CDB78C
S1132A20DEB7898360E089810E94951400000F90CD
S1132A30DF91CF910895CF93DF931F92CDB7DEB787
S1132A40898361E089810E94951400000F90DF91D1
S1132A50CF9108950F931F93CF93DF93CDB7DEB734
S1132A606C970FB6F894DEBF0FBECDBF87E290E03F
S1132A7027E230E0F90120812064FC01208387E211
S1132A8090E027E230E0F90120812460FC012083FA
S1132A9087E290E027E230E0F90120812860FC0120
S1132AA0208387E290E027E230E0F9012081206171
S1132AB0FC01208387E290E027E230E0F9012081E5
S1132AC02062FC01208388E290E028E230E0F901F2
S1132AD020812460FC01208388E290E028E230E039
S1132AE0F90120812064FC01208380E090E0A0E2D1
S1132AF0B1E489839A83AB83BC8320E030E04AE766
S1132B0053E469817A818B819C810E945A1ADC0189
S1132B10CB018B8B9C8BAD8BBE8B20E030E040E8EF
S1132B205FE36B897C898D899E890E94A218882322
S1132B302CF481E090E0988F8F8B3FC020E03FEF32
S1132B404FE757E46B897C898D899E890E94551AC9
S1132B5018164CF520E030E040E251E469817A81B6
S1132B608B819C810E945A1ADC01CB01BC01CD01EE
S1132B700E942019DC01CB01988F8F8B0FC089E153
S1132B8090E09A8F898F898D9A8D0197F1F79A8FAA
S1132B90898F8F89988D0197988F8F8B8F89988DC6
S1132BA0892B69F714C06B897C898D899E890E9461
S1132BB02019DC01CB01988F8F8B8F89988D9C8F86
S1132BC08B8F8B8D9C8D0197F1F79C8F8B8F88E277
S1132BD090E028E230E0F90120812B7FFC01208382
S1132BE080E090E0ACE8B2E48D839E83AF83B88745
S1132BF020E030E04AE753E46D817E818F8198853F
S1132C000E945A1ADC01CB0189879A87AB87BC875B
S1132C1020E030E040E85FE369857A858B859C8518
S1132C200E94A21888232CF481E090E09E878D876F
S1132C303FC020E03FEF4FE757E469857A858B85F5
S1132C409C850E94551A18164CF520E030E040E2AD
S1132C5051E46D817E818F8198850E945A1ADC012E
S1132C60CB01BC01CD010E942019DC01CB019E8760
S1132C708D870FC089E190E0988B8F878F85988925
S1132C800197F1F7988B8F878D859E8501979E8795
S1132C908D878D859E85892B69F714C069857A8512
S1132CA08B859C850E942019DC01CB019E878D8732
S1132CB08D859E859A8B898B89899A890197F1F7ED
S1132CC09A8B898B88E290E028E230E0F901208138
S1132CD02460FC01208388E290E028E230E0F901DE
S1132CE020812F7BFC01208381E20E940C1583E16B
S1132CF00E940C1586E00E940C1582EC0E940C15B3
S1132D0080E20E940C1589E00E940C1580E80E9464
S1132D100C1580E40E940C1500E010E005C080E072
S1132D200E941B150F5F1F4F083FF1E01F07B8F308
S1132D3088E00E940C158CE00E940C1500006C9633
S1132D400FB6F894DEBF0FBECDBFDF91CF911F91B8
S1132D500F9108950F931F93CF93DF93CDB7DEB7F1
S1132D6080E80E940C1580E40E940C1510921F0448
S1132D701092200400E010E007C0C801895D9D4F57
S1132D80FC0110820F5F1F4F083FF1E01F07A8F3FB
S1132D900000DF91CF911F910F910895CF93DF939E
S1132DA000D000D01F92CDB7DEB78B836C834D83E8
S1132DB08C81869586958695882F90E044E5489F7A
S1132DC09001499F300D11248B81882F90E0820F50
S1132DD0931F895D9D4F9A8389838D818823C9F0D0
S1132DE089819A81FC018081482F8C81882F90E011
S1132DF09C012770332781E090E002C0880F991F5F
S1132E002A95E2F7842B282F89819A81FC0120835B
S1132E1019C089819A81FC018081482F8C81882F77
S1132E2090E09C012770332781E090E002C0880F76
S1132E30991F2A95E2F780958423282F89819A8106
S1132E40FC01208300000F900F900F900F900F90C3
S1132E50DF91CF9108950F931F93CF93DF9300D009
S1132E6000D01F92CDB7DEB78C836D8310E065C0B0
S1132E7000E04EC08C81882F90E09C0120523109E3
S1132E809D81812F692F0E94C71A482F50E0C901E4
S1132E90880F991F880F991F820F931F840F951F06
S1132EA084589F4F9A83898389819A81FC018491F4
S1132EB08B838B81282F30E09D81802F692F0E9486
S1132EC0C71A882F90E0A90102C0559547958A95A5
S1132ED0E2F7CA0181709927892B61F0809120045F
S1132EE0982F900F80911F04810F41E0692F0E9459
S1132EF0CE160BC080912004982F900F80911F0450
S1132F00810F40E0692F0E94CE16802F01E0080F48
S1132F10402F50E08D81282F30E0C901880F991F80
S1132F20880F991F880F991F821B930B4817590705
S1132F300CF4A0CF812F11E0180F412F50E08D81A8
S1132F40282F30E0C901880F991F880F991F820F1D
S1132F50931F481759070CF48BCF20911F049D81B0
S1132F60892F880F880F890F820F8F5F80931F042A
S1132F7080911F04843570F010921F042091200466
S1132F809D81892F880F880F880F891B820F8F5F7F
S1132F908093200480912004803320F010921F0439
S1132FA01092200400000F900F900F900F900F903C
S1132FB0DF91CF911F910F910895CF93DF9300D0AC
S1132FC01F92CDB7DEB79A8389836B830CC0898146
S1132FD09A819C012F5F3F4F3A832983FC018081B2
S1132FE06B810E942B1789819A81FC01808188233F
S1132FF071F700000F900F900F90DF91CF9108951B
S1133000CF93DF9300D0CDB7DEB789836A838981FC
S113301080931F048A818093200400000F900F90F6
S1133020DF91CF9108950F931F93CF93DF93CDB783
S1133030DEB780E80E940C1580E40E940C1500E0C5
S113304010E009C0C801895D9D4FFC0180810E9488
S11330501B150F5F1F4F083FF1E01F0798F3000097
S1133060DF91CF911F910F9108955058BB27AA2744
S11330700E944D180C941B1A0E940D1A38F00E94DD
S1133080141A20F039F49F3F19F426F40C94FA1919
S11330900EF4E095E7FB0C94F419E92F0E942C1A26
S11330A058F3BA17620773078407950720F079F479
S11330B0A6F50C944E1A0EF4E0950B2EBA2FA02D03
S11330C00B01B90190010C01CA01A0011124FF27D1
S11330D0591B99F0593F50F4503E68F11A16F040CC
S11330E0A22F232F342F4427585FF3CF46953795CB
S11330F02795A795F0405395C9F77EF41F16BA0B90
S1133100620B730B840BBAF09150A1F0FF0FBB1F3D
S1133110661F771F881FC2F70EC0BA0F621F731F86
S1133120841F48F4879577956795B795F7959E3FE3
S113313008F0B0CF9395880F08F09927EE0F979574
S1133140879508950E94D01908F481E008950E949B
S1133150BB180C941B1A0E94141A58F00E940D1AE2
S113316040F029F45F3F29F00C94F41951110C94A8
S11331704F1A0C94FA190E942C1A68F39923B1F38C
S1133180552391F3951B550BBB27AA276217730789
S1133190840738F09F5F5F4F220F331F441FAA1F1D
S11331A0A9F335D00E2E3AF0E0E832D091505040D9
S11331B0E695001CCAF72BD0FE2F29D0660F771F87
S11331C0881FBB1F261737074807AB07B0E809F06D
S11331D0BB0B802DBF01FF2793585F4F3AF09E3FF2
S11331E0510578F00C94F4190C944F1A5F3FE4F3F2
S11331F0983ED4F3869577956795B795F7959F5F35
S1133200C9F7880F911D9695879597F90895E1E080
S1133210660F771F881FBB1F621773078407BA07DF
S113322020F0621B730B840BBA0BEE1F88F7E0953A
S113323008950E9420196894B1110C944F1A0895AE
S11332400E94341A88F09F5798F0B92F9927B751E4
S1133250B0F0E1F0660F771F881F991F1AF0BA9536
S1133260C9F714C0B13091F00E944E1AB1E008952C
S11332700C944E1A672F782F8827B85F39F0B93F1E
S1133280CCF3869577956795B395D9F73EF49095E9
S11332908095709561957F4F8F4F9F4F089597FB51
S11332A016F40E94FD190C949319E89409C097FB35
S11332B03EF490958095709561957F4F8F4F9F4F09
S11332C09923A9F0F92F96E9BB279395F69587954D
S11332D077956795B795F111F8CFFAF4BB0F11F410
S11332E060FF1BC06F5F7F4F8F4F9F4F16C08823B7
S11332F011F096E911C0772321F09EE8872F762FED
S113330005C0662371F096E8862F70E060E02AF02D
S11333109A95660F771F881FDAF7880F9695879519
S113332097F90895E894F92F96EBFF2381F012168C
S113333013061406440B9395F69587957795679530
S113334057954040FF23B9F71BC099270895882358
S113335051F49850D2F7872B762F652F542F432F93
S1133360322F20E0B1F3121613061406440B8823FF
S11333703AF09A95440F551F661F771F881FCAF7A6
S113338055234AF4440F551F11F460FF04C06F5FC6
S11333907F4F8F4F9F4F880F9695879597F9089584
S11333A0990F0008550FAA0BE0E8FEEF1616170652
S11333B0E807F907C0F012161306E407F50798F0BA
S11333C0621B730B840B950B39F40A2661F0232BD3
S11333D0242B252B21F408950A2609F4A140A6954F
S11333E08FEF811D811D089597F99F6780E870E034
S11333F060E008959FEF80EC089590958095709516
S1133400609550954095309521953F4F4F4F5F4FB4
S11334106F4F7F4F8F4F9F4F089500240A941616C5
S1133420170618060906089500240A9412161306AE
S1133430140605060895092E0394000C11F488233C
S113344052F0BB0F40F4BF2B11F460FF04C06F5F58
S11334507F4F8F4F9F4F089557FD9058440F551F2E
S113346059F05F3F71F04795880F97FB991F61F002
S11334709F3F79F087950895121613061406551F79
S1133480F2CF4695F1DF08C0161617061806991FE5
S1133490F1CF86957105610508940895E894BB27DA
S11334A066277727CB0197F908950E94D01908F46D
S11334B08FEF08950E946D1A0C941B1A0E940D1A26
S11334C038F00E94141A20F0952311F00C94F4198A
S11334D00C94FA1911240C944F1A0E942C1A70F3AC
S11334E0959FC1F3950F50E0551F629FF001729FA5
S11334F0BB27F00DB11D639FAA27F00DB11DAA1FB4
S1133500649F6627B00DA11D661F829F2227B00D00
S1133510A11D621F739FB00DA11D621F839FA00D8B
S1133520611D221F749F3327A00D611D231F849FDB
S1133530600D211D822F762F6A2F11249F57504032
S11335409AF0F1F088234AF0EE0FFF1FBB1F661FAD
S1133550771F881F91505040A9F79E3F510580F076
S11335600C94F4190C944F1A5F3FE4F3983ED4F38F
S1133570869577956795B795F795E7959F5FC1F71A
S1133580FE2B880F911D9695879597F90895991BA1
S113359079E004C0991F961708F0961B881F7A9546
S11335A0C9F78095089597FB072E16F4009407D069
S11335B077FD09D00E94161C07FC05D03EF49095B7
S11335C081959F4F0895709561957F4F0895052EBD
S11335D097FB1EF400940E94FE1A57FD07D00E9428
S11335E02A1C07FC03D04EF40C94FE1A5095409507
S11335F0309521953F4F4F4F5F4F0895909580959B
S1133600709561957F4F8F4F9F4F0895EE0FFF1F69
S11336100590F491E02D0994689401C0E894F92F81
S1133620F12B12F00C94401BA0E0B0E0EAE1FBE1C6
S11336300C94B21B092E059422F40E949C1B1123A6
S113364092F4F0E80F26FFEFE094F09400951095C3
S1133650B094C094D094A194BF0ACF0ADF0AEF0AB1
S1133660FF0A0F0B1F0B0E944B1B07FC0E949C1BA5
S1133670CDB7DEB7ECE00C94CE1B689401C0E8949F
S11336808F929F92CF93DF930E944B1BDF91CF9138
S11336909F908F90089588249924F401E401B0E464
S11336A09F93AA279A158B049C04ED05FE05CF056C
S11336B0D007A10798F4AD2FDC2FCF2FFE2FE92DD3
S11336C0982C892E982F872F762F652F542F432FD0
S11336D0322F2227B85031F7BF9127C01B2EBF913C
S11336E0BB27220F331F441F551F661F771F881FD8
S11336F0991F881C991CEE1FFF1FCC1FDD1FAA1FDA
S1133700BB1F8A149B04EC05FD05CE05DF05A0074D
S1133710B10748F08A189B08EC09FD09CE09DF09B6
S1133720A00BB10B21601A94E1F62EF49401AF01C1
S1133730BE01CD01000C089560957095809590951B
S113374030954095509521953F4F4F4F5F4F6F4FA8
S11337507F4F8F4F9F4F08952F923F924F925F92CA
S11337606F927F928F929F92AF92BF92CF92DF928D
S1133770EF92FF920F931F93CF93DF93CDB7DEB7F2
S1133780CA1BDB0B0FB6F894DEBF0FBECDBF099486
S11337902A88398848885F846E847D848C849B84DD
S11337A0AA84B984C884DF80EE80FD800C811B81EB
S11337B0AA81B981CE0FD11D0FB6F894DEBF0FBE1A
S11337C0CDBFED0108952A0D3B1D4C1D5D1D6E1DE1
S11337D07F1D801F911F08950024A7FD00942A0FC8
S11337E0301D401D501D601D701D801D901D0895CD
S11337F02A193B094C095D096E097F09800B910B5D
S113380008952A153B054C055D056E057F05800767
S1133810910708950024A7FD00942A173005400558
S1133820500560057005800590050895AA1BBB1B13
S113383051E107C0AA1FBB1FA617B70710F0A61BAC
S1133840B70B881F991F5A95A9F780959095BC01CD
S1133850CD010895A1E21A2EAA1BBB1BFD010DC0C8
S1133860AA1FBB1FEE1FFF1FA217B307E407F5072C
S113387020F0A21BB30BE40BF50B661F771F881F08
S1133880991F1A9469F760957095809590959B019E
S1133890AC01BD01CF010895FC0188279927E89464
S11338A021912032E9F3293010F02E30C8F32B3265
S11338B041F02D3239F4689404C00E94801C820FB8
S11338C0911D219120532A30C0F31EF490958195C7
S11338D09F4F08954532510520F4423010F00C9466
S11338E0751CFB011082CB010895BB274A3031F4CB
S11338F0992322F4BDE2909581959F4F0C94891CE5
S11339007AE0979F902D879F802D910D1124089523
S1133910BB27FB015527AA27880F991FAA1FA417A5
S113392010F0A41B83955051B9F7A05DAA3308F099
S1133930A95DA193009779F7B111B1931192CB01CD
S11339400C94A21CDC01FC01672F71917723E1F731
S1133950329704C07C916D9370836291AE17BF0758
S10B3960C8F30895F894FFCFA9
S11339680100140006002C010500FA000000F041D3
S1133978436F6E74726F6C61646F2000436F6E7472
S1133988726F6C61646F20004374726C2F4173739F
S113399869737400010020202000202020202020AA
S11339A82020204552524F2A202031323078383096
S11339B82000303132333435363738390053494EE4
S11339C8414953205649544149530020202020009E
S11339D862706D002553704F32002E00B043006DA5
S11339E86D486700504152414D4554524F53002091
S11339F820002A20726573702F6D696E00254F327E
S1133A0800766F6C00726573702F6D696E002020EC
S1133A1820002A20254F320020002A20766F6C00CF
S1133A282A20506175736120496E73702E006D737E
S1133A380053656E7369622E002D302E00636D4845
S1133A486700506175736120496E73702E002A20D7
S1133A5853656E7369622E00313233343536373824
S1073A6839203020AD
S9030000FC
